:020000040800F2
:1000000038080020810200088F3700086F29000897
:100010008B3700086D21000825470008000000000C
:10002000000000000000000000000000C1410008C6
:100030004D22000800000000A9400008EF4200081F
:100040009B0200089B0200089B0200089B0200081C
:100050009B0200089B0200087D260008A5260008D8
:100060009B0200089B0200089B0200089B020008FC
:100070009B0200089B0200089B0200089B020008EC
:100080009B0200089B0200089B0200089B020008DC
:100090009B0200089B0200089B0200089B020008CC
:1000A0009B0200089B0200089B0200089B020008BC
:1000B0009B020008514300089B0200089B020008B5
:1000C0009B0200089B0200089B0200089B0200089C
:1000D0009B020008F9440008154500089B0200082F
:1000E0009B0200089B0200089B0200089B0200087C
:1000F0009B0200089B0200089B0200089B0200086C
:100100009B0200089B0200089B0200089B0200085B
:100110009B0200089B0200089B0200089B0200084B
:100120009B0200089B0200089B0200089B0200083B
:1001300000F002F800F094F80AA090E8000C824465
:100140008344AAF10107DA4501D100F089F8AFF242
:10015000090EBAE80F0013F0010F18BFFB1A43F0A5
:1001600001031847DC750000FC750000103A24BF3D
:1001700078C878C1FAD8520724BF30C830C144BF0C
:1001800004680C607047000000230024002500264E
:10019000103A28BF78C1FBD8520728BF30C148BFEA
:1001A0000B6070476E2900F0F584702900F0E7813C
:1001B000662906F08986652906F08686672906F095
:1001C00083866129AFF3008003681B0A28BF41F0D2
:1001D0008001692900F05881642900F05581752952
:1001E00000F052816F2900F0F287782900F0B38186
:1001F000E92900F08D87E42900F08A87F52900F0CD
:100200008787EF2900F0EF87F82900F0B2810368B3
:10021000DB0928BF41F08001632900F00E877329B4
:1002200000F01387E32901F0D380F32901F0D8808F
:10023000002070471FB59DE8030000F0FFFB01F0B0
:1002400019F804000020002105F0B4FF401C606094
:100250000020002105F0C4FFE0601FBD10B510BDF7
:1002600001F0ACF91146FFF7E5FF04F0F9FC01F0ED
:10027000D8F903B4FFF7F2FF03BC01F049FA00001C
:100280000948804709480047FEE7FEE7FEE7FEE72A
:10029000FEE7FEE7FEE7FEE7FEE7FEE70448054966
:1002A000054A064B70470000F14200083101000882
:1002B00038020020380800203804002038040020CC
:1002C00070B5064600F09AFB056806F10B0020F0B9
:1002D0000704B4429CBF002070BD2B466A68BAB1C7
:1002E0001068A04210D304F1080188423CBF506856
:1002F000586007D35168101941601168091B0160EB
:1003000058601460101D70BD13465268002AE7D172
:100310002146284600F07EFB0028DED170BD70B576
:100320000446051F00F06AFB0068002C14BF4468F7
:1003300070BD002C18BFAC423CBF20466468F8D3A7
:1003400001680A18AA4218BF456003D12A68054609
:100350001144016028684119A1421CBF6C6070BD46
:100360006168696021680844286070BD10B5044662
:1003700000F03CFB0068005DC00602D504F12000DF
:1003800010BD204610BD00007CB51D4616460C0071
:10039000009001D02044401E074B7B442A4669460A
:1003A0000190304600F01FFE05461CB10020694652
:1003B00000F02CFE28467CBD790C00000FB41CB563
:1003C000084B06AA7B4469460090059800F00BFE96
:1003D00004460020694600F019FE20461CBC5DF86A
:1003E00014FB0000450C000070B5044685690068E8
:1003F000C10601D5302600E02026C00707D070BD19
:10040000D4E9012130469047206A401C20626D1ECD
:10041000F6D570BD70B5044685690078C00707D170
:1004200070BDD4E9012120209047206A401C206241
:100430006D1EF6D570BD70B50C460546012A05D077
:100440002878800600D5EA69002302E0012305E050
:100450005B1C934202D2E05C0028F9D1A869E6183F
:10046000C01AA861286A184428622846FFF7BCFF12
:1004700004E0D5E9012114F8010B9047B442F8D308
:100480002846FFF7C7FF70BD2DE9F041064600245E
:1004900010687529314616A510D000F010FB002811
:1004A00002DA404213A507E031688A0701D512A598
:1004B00002E0490704D511A5012401E000F008FB82
:1004C00000210A2206F1240709E0B0FBF2FCB0FB90
:1004D000F2F302FB1C00303078541846491C002807
:1004E000F3D123462A463046BDE8F04100F0F9BA80
:1004F000000000002D0000002B0000002000000084
:10050000F0B40D460188090502D5214C7C4402E077
:100510001F4C7C440E34002100F1240608E002F058
:100520000F071209E75D42EA03721B097754491C61
:1005300052EA0307F3D102780023120704D5702D85
:1005400006D009B1022311342246F0BC00F0C9BA2A
:1005500001231034F8E770B504460D4621461068B3
:1005600000F0B6FA024629462046BDE87040002356
:10057000C6E7D21D22F00703D3E90023C0E70368D2
:10058000126843F0200303600823C3610023B7E728
:10059000BE7000002DE9F05F894604464FF0000A66
:1005A000DFF874B1FB44C0F820A02046E16888471A
:1005B000002874D0252806D0D4E901219047206A6C
:1005C000401C2062F1E700265F462046E16888472C
:1005D0002028054607DB312D05D2781910F8200CAC
:1005E00008B10643F1E7B00701D526F00406C4F8C8
:1005F0001CA00027C4F818A02A2D09D0284604F012
:1006000007FA38B304EB8708303DC8F8185019E0F2
:1006100059F8041B204604EB87029161E168884782
:10062000012F054618D1E069002820DA26F02006BF
:100630001DE0D8F8180000EB800005EB40003038D2
:10064000C8F818002046E1688847054604F0E0F93C
:100650000028EED1012F0AD02E2D08D12046E168C6
:1006600088477F1C0546022F46F02006C4DBA069A0
:10067000002803DA404246F00106A061F00701D0ED
:1006800026F010066C2D0BD0682D09D04C2D39D0DA
:100690006A2D35D0742D35D07A2D33D016E038E060
:1006A000E1682F4620468847B842054609D16C2F9D
:1006B00026D04FF48060E16806432046884705460F
:1006C00004E06C2F1AD04FF4807006430DB3A5F1EF
:1006D0004100192802D8203546F400664A462946CA
:1006E000204626604E46FFF75DFD80B101280BD005
:1006F000F61D26F0070000F1080956E74020E4E760
:100700008020D8E70020D6E706F104094DE7284607
:1007100052E7206ABDE8F09F4E70000070B50646B3
:1007200000F070F90468054630460A22002100F006
:1007300065FD2C6070BD401ECAB210F8011F8A42D0
:1007400002D00029F9D10020704710B5431E13F8DC
:10075000014F002CFBD105E011F8014B002C03F8F0
:10076000014B03D0521EF7D20021197010BD30B5D5
:1007700005460B462A4613F8014B12F8010B08B147
:10078000A042F8D01CB1002802D06D1CF1E7284629
:1007900030BD10B5431C02E010F8011B71B1810798
:1007A000FAD14FF0013202C88C1A8C4314EAC211FC
:1007B000F9D0C01A0A0603D0C01E10BDC01A10BD61
:1007C0000A0401D0801E10BD0902FCD0401E10BDDD
:1007D00040EA010370B59B072ED14FF00136042A81
:1007E0002AD308C810C99D1B9D43121F15EAC615C0
:1007F00017D0D8B2E1B2401A50EA056110D198B2D0
:10080000A1B2401A50EA05410AD123F07F4024F0FA
:100810007F41401A50EA052102D1180EA0EB146066
:1008200070BDA342DBD018BA21BA884201D9012099
:1008300070BD4FF0FF3070BD0AB9002070BD10F8D8
:10084000013B11F8014B63B1A3420AD1521E08D0FB
:1008500010F8013B11F8014B1BB1A34201D1521E0C
:10086000EDD1181B70BD032A40F2308010F0030C4C
:1008700000F0158011F8013BBCF1020F624498BFF3
:1008800011F801CB00F8013B38BF11F8013BA2F190
:10089000040298BF00F801CB38BF00F8013B11F00B
:1008A000030300F02580083AC0F0088051F8043BAB
:1008B000083A51F804CBA0E80810F5E7121D5CBF18
:1008C00051F8043B40F8043BAFF30080D20724BF4B
:1008D00011F8013B11F801CB48BF11F8012B24BFDF
:1008E00000F8013B00F801CB48BF00F8012B70472E
:1008F00010B5203AC0F00B80B1E81850203AA0E8BB
:100900001850B1E81850A0E81850BFF4F5AF5FEAEE
:10091000027C24BFB1E81850A0E8185044BF18C9A1
:1009200018C0BDE810405FEA827C24BF51F8043B48
:1009300040F8043B08BF7047D20728BF31F8023B9C
:1009400048BF11F8012B28BF20F8023B48BF00F830
:10095000012B70474FF000020429C0F0128010F004
:10096000030C00F01B80CCF1040CBCF1020F18BF8B
:1009700000F8012BA8BF20F8022BA1EB0C0100F01E
:100980000DB85FEAC17C24BF00F8012B00F8012BF1
:1009900048BF00F8012B70474FF0000200B5134626
:1009A00094469646203922BFA0E80C50A0E80C508F
:1009B000B1F12001BFF4F7AF090728BFA0E80C5040
:1009C00048BF0CC05DF804EB890028BF40F8042B39
:1009D00008BF704748BF20F8022B11F0804F18BFA6
:1009E00000F8012B704770477047704710B500F052
:1009F00041FC001D10BD00BFBD57000000487047FE
:100A0000DC01002000487047D40100207047704787
:100A10007047704738B504460A4600206946AFF370
:100A20000080002808BF38BD02460099204600F02B
:100A300025FC012038BD012000F0B8BDF8B5AFF3AA
:100A40000080054600200C46102000BF0646A8196D
:100A5000A0420DD9324669460020AFF3008007005E
:100A600008BF00F0A3FD0098A04218BF0546C419B6
:100A7000FFF7C4FF05600746F01D20F00700461988
:100A8000284600F00AF8B44208BFF8BDA21B314660
:100A90003868BDE8F84000F0F1BB00210160C0E912
:100AA000011070471020704710B5FFF7ABFF0068CA
:100AB00010BD10B50446FFF7A5FF046010BD09681E
:100AC0004A0501D540B27047C905FCD500B2704750
:100AD00009684A0501D5C0B27047C905FCD580B286
:100AE00070472DE9F0470D4699469246044600F1BD
:100AF00024080168880604D5E06921F0100121600E
:100B000000E00120A84201DD471B00E00027A169A9
:100B10007A1902EB0900081AA0612078C00602D4F5
:100B20002046FFF761FC002608E0D4E901211AF80D
:100B300006009047206A401C761C20624E45F4DB7C
:100B40002078C0060AD52046FFF74EFC06E0D4E91F
:100B5000012130209047206A401C2062381EA7F1F6
:100B60000107F4DC07E0D4E9012118F805009047FB
:100B7000206A401C2062281EA5F10105F3DC2046F6
:100B8000FFF748FC2078000602D50220BDE8F08778
:100B90000120FBE711680268006A530501D508705F
:100BA0000AE0D30501D5088006E0130603D5C21775
:100BB000C1E9000200E008600120704770472DE99C
:100BC000FF4F0C461E464FF0FF378BB0D2E90001B5
:100BD000DDF860800A908A46C1F30A5505B93D46A2
:100BE000002108464FF00000BAF1000F00F4400069
:100BF00005DA00EB80004FF4400101EA50004FEAB3
:100C00009059B9F1010F00DDB9460A9850EA4A003F
:100C10000ED044F61050A5F2FF3545432F14B8F11D
:100C2000000F1ED07542291E1EDDC9F100021CE016
:100C3000B8F1010F4FF0000001D0302103E0F24382
:100C400005E02154401CB042FBDB3046002200216D
:100C500021540B99C1F80880C1E900200FB0BDE80C
:100C6000F08FBD1B6D1CDEE74A4600DA694206A81C
:100C700000F00AFC06AB93E8070003AB83E807002B
:100C800050460A9900F06AFD8DE80700A0F5005073
:100C90001F3800900398002D0ADD42F21F014A46DA
:100CA0000844002303A90390684600F0D3FF09E03D
:100CB000A0F500504A461F38002303A90390684658
:100CC00000F0DDFF8DE807000004000C03D04FF0BA
:100CD000FF30410800E01046B8F1000F03D00022B9
:100CE000009215461EE0751E05D400F0E1FA303280
:100CF00062556D1EF9D5B3460122084302D0002289
:100D00007F1C04E02078302801D100227F1E002AB9
:100D1000099784D01DE0112D07DA00F0C9FA3032AE
:100D200062556D1C50EA0102F5D1084302D00098CB
:100D3000C8B10EE00021681E05E0235C625C6354CC
:100D40002254401E491C8142F7DBAB46A81B401EC3
:100D50000990002004F80B000B98099AC0F808804D
:100D6000C0E9002B7AE711264FF0000857E72DE97C
:100D7000F04F88460446D21D22F0070191B0D1E918
:100D80000001CDE90A0103F0BAFD02460B98C00F3D
:100D900001D02D2007E02068810701D52B2002E03B
:100DA000202101EAC000032A099001D0072A05DBAF
:100DB00003464146204600F0C1FA0BE12078800648
:100DC00001D5E06900E00620B8F1650F814606D044
:100DD000B8F1660F18D0B8F1670F70D131E000207C
:100DE000B9F1110F009001DB112301E009F10103BA
:100DF0000AAA01A90CA8FFF7E2FEDDE90C700026A3
:100E000009F10105834647E001204B4600904FF071
:100E100000470AAA01A90CA8FFF7D1FEDDE90DB031
:100E20000C995D46002610B909F101000D18B9EBC7
:100E3000050003D4C0F1FF3609F10105A5EB090057
:100E40002BE0B9F1010F01DA4FF001090020B9F1EF
:100E5000110F0090484601DD112300E003460AAA65
:100E600001A90CA8FFF7ABFEDDE90C704D4600268A
:100E70008346207800070AD4AB4500DA5D4601A816
:100E8000012D04DD411911F8011C302907D04F450F
:100E900002DA17F1040F04DA012082460FE06D1E1A
:100EA000EEE7002F02DCED1B3E4403E0781CA84275
:100EB00000DD7D1CB81B00F1010A4FF000472078CF
:100EC000000703D4AA4501DB4FF0FF3A0021B7F138
:100ED000004F0DF143088DF8431024D002202B233E
:100EE000002F01DA7F422D230A21021EA0F101000A
:100EF00000DC5FB197FBF1FC97FBF1F201FB1C7C7E
:100F000017460CF1300C08F801CDEEE7A8F101000E
:100F100003702188090501D5452100E06521A0F174
:100F2000010800F8011C09980FA9A1EB0807FF1D93
:100F300000B10120411901EBEA70A1693844081A97
:100F4000401EA0612078C00602D42046FFF74CFA6C
:100F5000099828B1D4E901219047206A401C2062F9
:100F60002078C00622D52046FFF73EFA1EE0002E6C
:100F700004DBB34502DD01A8805D00E03020D4E948
:100F800001219047206A401C2062761CAAF10100D2
:100F90005FEA000A0AD100F06DF9C0680168405CA0
:100FA000D4E901219047206A401C2062281EA5F147
:100FB0000105DCDC07E0D4E9012118F8010B9047BA
:100FC000206A401C2062381EA7F10107F3DC20468E
:100FD000FFF720FA032011B041E6000001694A1C26
:100FE00002610878704700B58FB0CDE9013100216A
:100FF000059105497944CDE9031011466846FFF78C
:10100000C9FA0FB000BD0000E5FFFFFF0A6802F853
:10101000010B0A607047D1E900239A4202D2531CA7
:101020000B601070704710B5436913B1AFF30080C7
:1010300001E0FFF700FA012010BD127800F1240151
:101040000A7000224A700122EDE711684FF0FF326A
:10105000E9E700002DE9FF5F15468A460446DFF800
:10106000AC80F8440027D8E900103E46CDE90010D6
:1010700010E03AF816106A4602A800F077FA411C10
:1010800007D02178890603D5E269391891420DD835
:101090000744761C2078800602D5E069B84205DD59
:1010A000AE42E6DB3AF816000028E2D1A069C01B88
:1010B000A0612046FFF798F9D8E90010CDE90010AB
:1010C000002017E03AF818106A4602A800F04EFA1D
:1010D000B0F1FF3F81460BD000250DF1080B05E074
:1010E000D4E901211BF8050090476D1C4D45F7D34D
:1010F00008F10100B0428046E4DB206A38442062F7
:101100002046FFF787F9BDE8FF9F00002A66000030
:101110002DE9F0418046D21D22F007020025D2E9D8
:101120000002F52915A614D0011E72F1000106DA9D
:101130000023D0EB030063EB020211A608E0D8F80D
:1011400000108B0701D50FA602E0490701D50EA6B6
:1011500001251146002408F1240704E000F0A8F856
:1011600030323A55641C50EA0102F7D12B46324620
:1011700021464046BDE8F041FFF7B3BC0000000047
:101180002D0000002B0000002000000030B40021E2
:1011900000F1240408E002F00705D208303542EAE5
:1011A0004372DB086554491C52EA0305F3D1046815
:1011B000002310A2250707D5A40600D421B1C469D5
:1011C00001230DA2641EC46130BCFFF78ABC10B5B8
:1011D000044621461068FFF77BFC02462046BDE826
:1011E00010400023D2E7D21D22F00701D1E90023ED
:1011F000CCE7000000000000300000002DE9F047BF
:1012000091460F4680460446002614F8015B2DB136
:10121000FFF7ECFB0068405DC007F6D12B2D02D034
:101220002D2D18D0641E4A463946204600F0DCF8C1
:1012300027B13968A14201D1C7F800804FF00204FC
:1012400071050BD54042002803DDFFF7DBFB04608E
:10125000A007BDE8F08746F48066E4E70028F8DAE6
:10126000FFF7D0FB04606FF00040F2E700487047E2
:10127000D401002000487047F40100200346406874
:101280008C46002818BF88423CBF03464068F8D30C
:1012900018681844884207D00CF1030020F00700BA
:1012A000001D411A521A0146081D0A60FFF737B89F
:1012B00030B5B0F10A024FEA900E71F100034EEA28
:1012C000817EB0EB0E0061EB91014FEA101E4EEAF9
:1012D000017E10EB0E0041EB11114FEA102E4EEA89
:1012E000016E10EB0E0041EB11214FEA104E4EEA59
:1012F000014E10EB0E0041EB1141401841F100018D
:101300004FEAD00040EA41704FEAD10110EB80056E
:101310004FEA810444EA907444EB01046D1944EBF4
:101320000404521BA3414FF0000348BF0A3200D50A
:1013300030BD401C41F1000130BD00002DE9F041FD
:101340001F46044603260168072A01F4006004DBF7
:1013500008B116A505E016A503E008B115A500E043
:1013600015A521F010002060A069C01EA0610FB17A
:10137000401EA0612046FFF737F84FB1D4E90121A4
:1013800038469047206A401C2062C01C206206E05C
:10139000206AFAE7D4E9012115F8010B9047761E7F
:1013A000F8D22046FFF736F8BDE8F0814E414E00F6
:1013B0006E616E00494E4600696E660010B5436965
:1013C00013B1AFF3008001E0FFF744FE012010BD30
:1013D000128800F1240182840022C2840122EDE7F8
:1013E00011684FF0FF32E9E72DE9F05F82461546BC
:1013F0008B4600270AF10104B9460078302801D055
:101400009DB113E014F8010B0127782803D0582868
:1014100001D045B10AE00DB1102D07D1002714F815
:10142000010B102502E0082500E00A250026B04641
:101430000EE005FB080005FB06F101271FFA80F806
:1014400001EB1046B6F5803F00D3B94614F8010B06
:10145000294600F0D8F80028EBDABBF1000F05D0E0
:101460000FB1641E00E05446CBF80040B9F1000F04
:1014700006D0FFF7C7FA02210160C81EBDE8F09F41
:1014800048EA0640FAE700002DE9F0478146164693
:101490008AB0354878440DC88DE80D00324878444C
:1014A000801C03AC0DC884E80D0041F69B30084455
:1014B000372190FBF1F290FBF1F5A5F1800501FBDE
:1014C00012041B3C02D56442012000E00020DFF83A
:1014D00098A080460027FA44AAF1BE0A0EE0E00771
:1014E0000AD03246684607EB470101230AEB810127
:1014F00000F0C5FB8DE8070064107F1C002CEED1C6
:10150000194F7F44AE3F19E0E80715D007EB0410F0
:101510000DF1180A90E80E008AE80E00C068F0424B
:1015200001D1981908903246012306A903A800F0BA
:10153000A6FB03AB83E807006D10641C002DE3D10C
:101540004FF0010332466946B8F1000F03A802D0FC
:1015500000F080FB01E000F092FBC9E90001C9F84E
:1015600008200AB0BDE8F0878462000070B5164616
:101570000C460546FFF73AFA036893F80101012883
:1015800006D0FF2C0FD8185D68B101202C7070BDFB
:10159000D3F807013246214603F2071303442846D5
:1015A000BDE8704018474FF0FF3070BD10B500F037
:1015B00047F8BDE8104000F03DB870477546FFF7AA
:1015C00055FEAE4605006946534620F007008546A5
:1015D00018B020B5FEF762FEBDE820404FF00006CF
:1015E0004FF000074FF000084FF0000B21F007010B
:1015F000AC46ACE8C009ACE8C009ACE8C009ACE84E
:10160000C0098D4670473A2800D2303820F02002B9
:10161000412A01D3A2F13700884201D34FF0FF30B5
:10162000704710B50446AFF300802046BDE8104077
:10163000FEF71FBE002801D000F06AB87047000016
:1016400010B5012805D0002103A000F067F80120A3
:1016500010BD09A1F8E7000053494752544D454DCC
:101660003A204F7574206F662068656170206D6543
:101670006D6F7279000000003A2048656170206D3E
:10168000656D6F727920636F727275707465640036
:101690004FF0013C50F8042B51F8043B9A4221D101
:1016A000A2EB0C03934313EACC1317D150F8042B8D
:1016B00051F8043B9A4215D1A2EB0C03934313EA71
:1016C000CC130BD150F8042B51F8043B9A4209D1AA
:1016D000A2EB0C03934313EACC13DBD04FF00000D2
:1016E000704700BFD01A01BAB1FA81F101F01801B8
:1016F00022FA01F0CB40C1F12001DBB2C0B2C01A26
:101700002CFA01F3D11A914311EAC311E6D17047C3
:1017100001491820ABBEFEE72600020070B5054661
:101720000C460A2000E06D1C00F011F835B1287855
:101730000028F8D102E0641C00F009F814B1207808
:101740000028F8D1BDE870400A20AFF3008008B54A
:1017500069468DF800000320ABBE08BD5FEA400C6F
:1017600008BF91F0000F4FEA8C234FEAC12243EAF1
:1017700051514FEA1C5018BF00F5F0404FEA3000BD
:1017800018BF41F000415FEA6C5C00F02980BCF1B9
:10179000FF3F08BF40F080407047130C06BF1204A3
:1017A0004FF0100C4FF0000C130E04BF12020CF19E
:1017B000080C130F04BF12010CF1040C930F04BFAB
:1017C00092000CF1020CD30F04BF52000CF1010C7B
:1017D00011464FF00002A0F11F00A0EB0C00704773
:1017E00011F0004F08BF704731F000413FF4D5AF12
:1017F0000B0C06BF09044FF0100C4FF0000C0B0E41
:1018000004BF09020CF1080C0B0F04BF09010CF115
:10181000040C8B0F04BF89000CF1020CCB0F04BF2A
:1018200049000CF1010CCCF12003A0EB0C0022FAD2
:1018300003F302FA0CF241EA030100F101007047E0
:1018400020F07F4C80EA030023F07F47ACEB0703D6
:1018500003F57C5300F0004003F1FF032DE98049BC
:101860004FEA154B09B44FEA144325EA0B4E24EA1C
:1018700003480FF2042606EB132749083E785FEA77
:10188000320203FB0667C7F5000707FB06F64FEABF
:1018900054374FEAD64606F1020607FB066CCCF138
:1018A000005C4FEA1C472CEA074C07FB06F40CFBD4
:1018B00006F504EB15464FEA961634BF00204FF0AC
:1018C00000404FEAD13706FB07FC4FEA1C4C0CFBEB
:1018D0000BF7D21B03FB0CF761EB07010CFB0EF7B8
:1018E000B0EB074072EB17420CFB08F734BFA2EBDA
:1018F0000742B2EB074261EB17414FEA0C444FEA53
:10190000910706FB07FC4FEA1C4C0CFB0BF7B0EBF6
:10191000C74072EB573203FB0CF734BFA2EBC74250
:10192000B2EBC74261EB57310CFB0EF7B0EBC700CF
:1019300072EB57720CFB08F734BFA2EBC702B2EB95
:10194000C70261EB5771039F4FEA816141EA92112F
:1019500004EBCC044FEAD1374FEA826206FB07FC66
:1019600042EA90124FEA80604FEA1C4C0CFB0BF7E6
:10197000D21B03FB0CF761EB07010CFB0EF7B0EB7E
:10198000074072EB17420CFB08F734BFA2EB07428B
:10199000B2EB074261EB17414FEA8C554FEA9107D2
:1019A00004EB9C2406FB07FC4FEA1C4C0CFB0BF7DA
:1019B000B0EBC74072EB573203FB0CF734BFA2EB1E
:1019C000C742B2EBC74261EB57310CFB0EF7B0EBED
:1019D000C70072EB57720CFB08F734BFA2EBC702CB
:1019E000B2EBC70261EB577115EB4C254FEA8161F1
:1019F00041EA92114FEA82624FEAD13742EA9012ED
:101A000006FB07FC44F100044FEA80604FEA1C4CDF
:101A10000CFB0BF7D21B03FB0CF761EB07010CFB74
:101A20000EF7B0EB074072EB17420CFB08F734BF20
:101A3000A2EB0742B2EB074261EB174115EB1C1515
:101A40004FEA813141EA92414FEA823242EA9042C2
:101A50004FEA80304FEA0C7644F1000448EA034331
:101A60004EEA0B484FF0000EB2EB080C71EB030787
:101A700024BF624639464EEB0E0E4FF0000B0018A5
:101A8000524149414BEB0B0BB2EB080C71EB0307D6
:101A90007BF1000B24BF624639464EEB0E0E4FF031
:101AA000000B0018524149414BEB0B0BB2EB080CF9
:101AB00071EB03077BF1000B24BF624639464EEB06
:101AC0000E0E51EA020718BF46F0010616EB0E761D
:101AD00055F1000254F1000103D5BDE88901BDE8CC
:101AE0000088BDE88901BDE80048B619524141EBC4
:101AF0000101A3F10103704780807F7E7D7C7B7AAA
:101B00007978777676757473727171706F6E6E6DA9
:101B10006C6C6B6A6A69686867666665646463634F
:101B200062616160605F5F5E5E5D5D5C5C5B5B5AD5
:101B30005A59595858575756565555555454535342
:101B400052525251515050504F4F4F4E4E4D4D4D9D
:101B50004C4C4C4B4B4B4A4A4A49494948484847E8
:101B60004747474646464545454444444443434326
:101B70004342424242414141002B9C4630D47700CF
:101B80002BD01CB54FEA370703B44FF010004FF0CD
:101B90001001BAF1000F06D0BCF1000FDCBF40F01D
:101BA000080040F008014FF000000FBCBDE81040F5
:101BB0000BF1010BBBF1010F08BF5FEA170722BF52
:101BC00012F1010211F101014FF0004143F1000354
:101BD00000F0004043EA00007047F9D35708D0E70F
:101BE00046EA064613F1400F4FEA16461FDD13F191
:101BF000200FDFBF16430A46002120335B42BED0D0
:101C0000C3F1200746EA064602FA07F74FEA1646EE
:101C100046EA0706C3F1200722FA03F201FA07F7A2
:101C200021FA03F14FF0000342EA0702A7E746EA70
:101C3000020646EA06464FEA164646EA0106BCBFD9
:101C400046EA0646360C4FF000034FF000024FF014
:101C5000000194E72DE9804C9A46934670B491E8D0
:101C6000380007C831EA400C48BF34EA430C03D5BA
:101C7000FFF7E6FDFFF780FFF0BCBDE8008C2DE923
:101C8000804C9A46934670B491E8380007C810F02B
:101C9000804F08BF13F0804F03D100F005F8FFF725
:101CA0006BFFF0BCBDE8008C20F07F4780EA0300AA
:101CB00023F07F4C07EB0C03A3F57C5300F00040AE
:101CC000A3F1FE0392F0000F00F0B38095F0000F37
:101CD00000F077802DE901494FEA11404FEA1446A0
:101CE00021EA004800FB06FC24EA064708FB06F64A
:101CF00007FB08F800FB07F718EB06484CEB164CFF
:101D00004FEA124B18EB07484FEA15464CEB1740C9
:101D100022EA0B4E0BFB06FC25EA06470EFB06F6F5
:101D200007FB0EFE0BFB07F71EEB064E4CEB164CAB
:101D30004FF000061EEB074E4CEB174B18EB0B0851
:101D400040F1000018EB0E0B58EB000840F10000CA
:101D50008F1A4FF000013CBFC943661B14BFB5EB9F
:101D6000040C00213CBFC943F61B4FEA17444EEA5E
:101D70008E0E27EA04454FEA1C4704FB07622CEA53
:101D8000074C05FB07F70CFB05F604FB0CFC16EBF8
:101D9000074642EB174216EB0C4642EB1C421BEB8C
:101DA000060658EB0202414146EA9E0601D5BDE80F
:101DB0000189B619524141EB0101A3F10103BDE8CC
:101DC00001894FEA14454FEA114724EA054621EA02
:101DD000074C05FB07F406FB07F70CFB06F105FBB8
:101DE0000CFC11EB074144EB17444FEA124711EB8F
:101DF0000C4144EB1C4422EA074C05FB07F206FBAE
:101E000007F70CFB06F605FB0CFC16EB074642EB4E
:101E1000174216EB0C4642EB1C456A1854F10001C0
:101E200048BF7047B619524141EB0101A3F10103CC
:101E3000704795F0000F37D04FEA11424FEA144730
:101E400021EA024624EA074C02FB07F106FB07F7EA
:101E50000CFB06F402FB0CFC14EB074441EB1741AE
:101E60004FEA154714EB0C4441EB1C4125EA074CA3
:101E700002FB07F506FB07F70CFB06F602FB0CFC62
:101E800016EB074645EB174516EB0C4645EB1C4297
:101E9000121951F1000148BF7047B619524141EB88
:101EA0000101A3F1010370474FEA14454FEA1147BE
:101EB00024EA054621EA074C05FB07F106FB07F774
:101EC0000CFB06F24FF0000605FB0CFC12EB074280
:101ED00041EB174112EB0C4251EB1C4148BF7047DC
:101EE000921841EB0101A3F10103704708B54820A6
:101EF0008DF8030003208DF802004FF48070ADF8D8
:101F000000006946124800F095FC01201149086064
:101F1000052002F07FFE4FF480710F4800F015FDA0
:101F2000012802D10D49086002E000200B49086039
:101F3000002008490860052002F06CFE10208DF892
:101F400003006946024800F075FC0448006808BDBB
:101F5000000C0140A481214200080140240000201F
:101F6000F8B5002448208DF803004FF48070ADF8D8
:101F7000000003208DF802006946184800F05AFC62
:101F80004FF48071154800F0EBFC00251AE0600664
:101F9000040E012012490860052002F03BFE4FF4B8
:101FA00080710E4800F0D1FC012801D1012600E02B
:101FB0000026344300200A490860052002F02AFE6A
:101FC000681CC5B2082DE2DB10208DF803006946BD
:101FD000024800F02FFC2046F8BD0000000C014034
:101FE000A481214238B5044610208DF80300032057
:101FF0008DF802004FF48070ADF8000069460F487C
:1020000000F018FC012C03D101200D49086005E007
:102010001CB900200A49086000E038BD01200849C9
:10202000091D0860052002F0F5FD00200549C1F8F2
:10203000A401052002F0EEFD00BFEEE7000C014018
:10204000A08121420080214270B5044600251EE097
:1020500004F0800028B14FF480710F4800F080FC3C
:1020600004E04FF480710C4800F078FC6006040E28
:1020700001200A490860052002F0CCFD0020084933
:10208000C1F8A401052002F0C5FD681CC5B2082DE9
:10209000DEDBFFF72BFF70BD000C0140A481214265
:1020A0000080214210B501200A4908600A49C1F8A0
:1020B000A401052002F0AEFD4FF48071074800F046
:1020C0004DFC052002F0A6FD4FF40071034800F01E
:1020D00045FC10BDA081214200802142000C01403E
:1020E00010B500200849086001200849C1F8A40182
:1020F000052002F08FFD4FF48071054800F030FCA0
:10210000052002F087FD10BDA08121420080214200
:10211000000C014010B500220121064800F022FC0D
:102120004FF4FA7002F050FD01221146014800F010
:1021300019FC10BD0008014008B50121042001F080
:10214000C5FF0120ADF8000010208DF8030003202A
:102150008DF802006946044800F06CFB012211462C
:10216000014800F0FFFB08BD0008014000BFFEE78A
:1021700008B54FF48070ADF8000048208DF80300DA
:102180006946024800F056FB08BD00000008014007
:1021900008B54FF48070ADF8000010208DF80300F2
:1021A00003208DF802006946014800F043FB08BD9A
:1021B0000008014010B501217C2001F087FF00F0EC
:1021C00003F800F045F810BD10B5FFF7E1FF4FF43C
:1021D0008071074800F0C2FB142002F0F5FC4FF4B8
:1021E0008071034800F0BCFB1E2002F013FD10BDFF
:1021F000000801407CB50446FFF7E6FF00F028F830
:1022000000BB002505E000F07FF80DF80500681C14
:10221000C5B2052DF7DB9DF800009DF801100844BC
:102220009DF8021008449DF8031008449DF804101E
:10223000884209D19DF800002070641C9DF80200BE
:10224000207001E001207CBD0020FCE77047000009
:1022500010B50024FFF78CFF04E0601CC4B201201D
:1022600002F0D8FC4FF480710F4800F06EFB08B10B
:10227000642CF2DB642C01DB012010BD002404E09F
:10228000601CC4B2012002F0C5FC4FF48071064806
:1022900000F05BFB08B9642CF2DB642C01DB01204D
:1022A000EBE70020E9E700000008014010B500243A
:1022B00004E0601CC4B2012002F0ACFC4FF4807159
:1022C000104800F042FB08B1642CF2DB002404E06B
:1022D000601CC4B2012002F09DFC4FF480710948DB
:1022E00000F033FB08B9642CF2DB282002F092FCEA
:1022F0004FF48071034800F028FB08B1012010BDA5
:102300000020FCE70008014070B50024002506E02D
:102310006006040EFFF7CAFF0443681CC5B2082D0F
:10232000F6DB204670BD000010B580210348FEF7A3
:1023300011FB00200249088010BD0000540100205C
:102340004000002070B50546002400BF00F07CF975
:1023500080B90DA10E48FEF70AFA044654B13A219D
:102360002046FEF7E8F9044614B1641C204670BD0F
:102370000020FCE7052002F027FC681E85B2002D36
:10238000E4DC0020F3E700004950442C000000008A
:102390005401002010B5FFF7C7FF39A13A4802F0F9
:1023A00071FA03E04FF4FA7002F00EFC37A138A086
:1023B00000F0FCF80028F5D137A1334802F062FAAA
:1023C00034A138A000F0F2F84FF4FA7002F0FCFBF0
:1023D00030A137A000F0EAF84FF4FA7002F0F4FBF5
:1023E00037A1294802F04EFA03E04FF4FA7002F0E8
:1023F000EBFB26A135A000F0D9F80028F5D137A1D4
:10240000214802F03FFA03E04FF4FA7002F0DCFBDF
:102410001EA136A000F0CAF80028F5D137A11A484D
:1024200002F030FA03E04FF4FA7002F0CDFB36A16F
:1024300037A000F0BBF80028F5D13DA1124802F00A
:1024400021FA03E04FF4FA7002F0BEFB0FA13BA0AB
:1024500000F0ACF80028F5D13CA10B4802F012FACC
:1024600003E04FF4FA7002F0AFFB3CA13DA000F096
:102470009DF80028F5D147A1034802F003FA10BDEA
:10248000302E2041540D0A00003801404F4B00000F
:1024900041540D0A00000000312E205253540D0A01
:1024A0000000000041542B5253540D0A000000005C
:1024B00041542B434950434C4F53450D0A000000F3
:1024C000322E2043574D4F44450D0A0041542B43B3
:1024D000574D4F44453D310D0A000000332E204139
:1024E000542B4357444843500D0A000041542B439A
:1024F00057444843503D312C310D0A00342E2043BF
:10250000574A41500D0A0000474F542049500000DF
:1025100041542B43574A41503D22562D4E45572298
:102520002C227778647A732E2E2E220D0A0000005A
:10253000352E204349504D55580D0A0041542B4328
:1025400049504D55583D300D0A000000362E2043AD
:10255000495053544152540D0A000000434F4E4E0F
:102560004543540041542B43495053544152543D28
:1025700022544350222C2262726F6B65722D636E5F
:102580002E656D71782E696F222C313838330D0A23
:1025900000000000372E204553503832363620498F
:1025A0006E6974204F4B0D0A000000002DE9F041C8
:1025B00004460D46C8262046FEF7EBF887B23A4699
:1025C00021460D4802F082F90FE000F03DF848B9CD
:1025D00029460A48FEF7CBF820B1FFF7A5FE0020F8
:1025E000BDE8F0810A2002F0EFFA301EA6F10101E9
:1025F000CEB2EAD10120F3E70044004054010020AC
:1026000030B589B004460D46FFF78EFE2A4608A174
:1026100001A8FDF7D3FE0AA101A8FFF7C7FF20B963
:102620002A462146074802F051F909B030BD0000A2
:1026300041542B43495053454E443D25640D0A00F7
:102640003E000000004400400A48008808B901200C
:1026500070470848008808490988884203D100204B
:1026600004490880F4E703480088034908800120F2
:10267000EEE70000400000204200002010B51420CA
:1026800002F0A2FA0121054800F05FF910B900201C
:1026900003490870012000F05DF810BD000C0140F6
:1026A0000700002010B5142002F08EFA022108481D
:1026B00000F04BF938B90748006808B9012000E07C
:1026C000002004490860022000F044F810BD00001A
:1026D000000C0140840121420EB500F0E5FA012111
:1026E000084601F0F3FC0021012000F083F80120EE
:1026F000019000208DF808000C208DF8090001A839
:1027000000F02EF80121084600F074F80220019034
:1027100001A800F025F806208DF8000002208DF8B1
:10272000010001208DF802008DF80300684601F0D9
:102730002FF807208DF8000002208DF801000020FE
:102740008DF8020001208DF80300684601F020F8A2
:102750000EBD0000014908607047000014040140EC
:10276000002123498279002A3AD00A461268036878
:102770009A430B461A600A1D126803689A430B1DA0
:102780001A60027911440A6803681A430A60184AF9
:102790000832126803689A43154B08331A601A1DF1
:1027A000126803689A43124B0C331A604279102A5C
:1027B0000ED11A1F126803681A430D4B08331A60B2
:1027C0001A1D126803681A43094B0C331A600DE096
:1027D0000749427911440A6803681A430A6005E010
:1027E000027911440A6803689A430A60704700003E
:1027F0000004014030B500228B071C0F0F2303FAA1
:1028000004F20B4B8C1053F824309343084C8D107A
:1028100044F8253023468C1053F824308C07240FBD
:1028200000FA04F42343024C8D1044F8253030BDE7
:10283000080001402DE9F041024600250026002055
:1028400000230024002791F803C00CF00F0591F835
:1028500003C00CF0100CBCF1000F03D091F802C0C3
:102860004CEA050591F800C0BCF1000F31D01468A6
:1028700000202BE04FF0010C0CFA00F3B1F800C07F
:102880000CEA03069E4220D183004FF00F0C0CFA95
:1028900003F7BC4305FA03FC4CEA040491F803C0B7
:1028A000BCF1280F06D14FF0010C0CFA00FCC2F865
:1028B00014C00AE091F803C0BCF1480F05D14FF0F5
:1028C000010C0CFA00FCC2F810C0401C0828D1D33F
:1028D0001460B1F800C0BCF1FF0F34DD5468002073
:1028E0002EE000F1080C4FF0010808FA0CF3B1F8E3
:1028F00000C00CEA03069E4221D183004FF00F0C6A
:102900000CFA03F7BC4305FA03FC4CEA040491F803
:1029100003C0BCF1280F05D100F1080C08FA0CF82F
:10292000C2F8148091F803C0BCF1480F07D100F140
:10293000080C4FF0010808FA0CF8C2F81080401C8F
:102940000828CED35460BDE8F08102460020936889
:102950000B400BB1012000E000207047416170473F
:10296000016170470AB1016100E04161704700BF39
:10297000FEE770B502460024002500230020958A5A
:10298000138B1B0445EA030626F07F4404EA010684
:102990008E4201D1012000E0002070BD21B10288EB
:1029A00042F00102028004E002884FF6FE731A40F2
:1029B000028070471FB500F021F80020ADF8040038
:1029C0004BF6FF70ADF80600C020ADF808004FF4DC
:1029D0008060ADF80A000001ADF80C0005480090D9
:1029E0006946054800F03CF801210348FFF7D6FF8F
:1029F0001FBD0000400D03000054004008B5012138
:102A00001C2001F063FB0121480501F04FFBC020B1
:102A1000ADF800001C208DF8030003208DF80200A3
:102A200069460248FFF706FF08BD0000000C0140A0
:102A300021B1028842F48072028004E002884FF6DD
:102A4000FF631A400280704721B1028842F400728D
:102A5000028004E002884FF6FF531A40028070475C
:102A60002DE9F04385B004460D460026B146042703
:102A7000DFF8CC80A6884FF6C0700640684601F0AB
:102A800035FBDDF808802F48B8FBF0F01FFA80F91D
:102A900046EA0906A68020884FF6FE71084020808D
:102AA00000262949286888420CD828684000B8FBCD
:102AB000F0F087B2042F00DA04273E4309F1010049
:102AC000208427E0E8884BF6FF71884206D1286809
:102AD00000EB4000B8FBF0F087B209E0286800EB9B
:102AE000C00101EB0010B8FBF0F087B247F480475B
:102AF000C7F30B0008B947F0010747F4004006434D
:102B00004FF4967009FB00F04FF47A7190FBF1F0EE
:102B1000401C2084A683208840F001002080268865
:102B20004FF6F5300640A888698908430643268099
:102B3000A88929890843208105B0BDE8F0830000F9
:102B400000127A0040420F00A08601002DE9F041FA
:102B500005460F4614461E4601211D48FFF768FF33
:102B600000BF1C491A48FFF704FF0028F9D00022D3
:102B70002946174800F070F800BF17491448FFF7BE
:102B8000F8FE0028F9D03946114800F06EF800BF71
:102B90001149891C0E48FFF7ECFE0028F8D00CE024
:102BA00021780B4800F061F8641C00BF0A49891CB9
:102BB0000748FFF7DEFE0028F8D0301EA6F101011D
:102BC0008EB2EDD101210248FFF73EFFBDE8F08152
:102BD00000540040010003008200070070B5044665
:102BE0000E46154601211948FFF722FF00BF18497C
:102BF0001648FFF7BEFE0028F9D0002221461348F0
:102C000000F02AF800BF13491048FFF7B2FE002871
:102C1000F9D031460D4800F028F800BF0D49891C55
:102C20000A48FFF7A6FE0028F8D02946074800F01A
:102C30001CF800BF0749891C0448FFF79AFE0028CA
:102C4000F8D001210148FFF7FFFE70BD005400409D
:102C5000010003008200070012B141F0010102E00F
:102C60004FF6FE73194001827047018270470000E1
:102C700008B50121042001F029FA10208DF8030085
:102C800003208DF802000002ADF8000069460548F7
:102C9000FFF7D0FD012001F009FBB42001F094FF03
:102CA00008BD0000000C014008B50121082001F01A
:102CB0000DFA0320ADF8000048208DF803006946A6
:102CC0000148FFF7B7FD08BD000C014008B5012120
:102CD000042001F0FBF91020ADF800008DF803008E
:102CE00003208DF8020069460948FFF7A3FD102173
:102CF0000748FFF733FE0220ADF80000694604489C
:102D0000FFF798FD02210248FFF728FE08BD0000EA
:102D10000008014010B50446207B012802D120683C
:102D2000FDF7FDFA002020606060A060207310BDF8
:102D30000246002301230DE002F07F000870D20953
:102D40002AB1087840F080000870491C01E018465C
:102D500070475B1C042BEFDD4FF0FF30F8E770B5D8
:102D600004460E460025206898B90120207330469D
:102D7000FDF7A6FA20602068E0B100206060A66040
:102D800003E00020216848556D1CA068A842F8D8CF
:102D900010E00220207303E00020216848556D1CDC
:102DA000A068A842F8D800206060A068B04201D2B4
:102DB0000020206070BD00002DE9FF4F83B08246E7
:102DC0008B469146159C0025002002900F2701900C
:102DD0004846FDF7DEFC0FFA80F8B9F1000F03D189
:102DE000012007B0BDE8F08F08F10200384487B237
:102DF000109808B145F00205129878B145F0040525
:102E00001298FDF7C6FCC0B202901398FDF7C1FC02
:102E100001460298001D0844384487B2119820B139
:102E2000012804D0022808D104E000BF07E045F0E3
:102E30000C0504E045F0140501E00220D1E700BFD5
:102E4000149808B145F02405BAF1000F02D0BBF187
:102E5000000F01D10320C4E745F0C0055046FDF73F
:102E600098FC06465846FDF794FC3044001D384453
:102E700087B239462046FFF772FF206808B9042060
:102E8000AFE739462068FDF765FD10216268501CE8
:102E9000606020688154D4E90023D118781FFFF7BF
:102EA00047FF00B201900198002804DA2046FFF79E
:102EB00031FF052095E761680198084460600021B2
:102EC0006268501C60602068815404216268501C54
:102ED0006060206881544D216268501C60602068E9
:102EE000815451216268501C6060206881545421D3
:102EF0006268501C6060206881546268501C606089
:102F00002068815404216268501C606020688154EC
:102F10006168481C6060206845540698010A626830
:102F2000501C6060206881540698C1B26268501CD1
:102F3000606020688154C8F307216268501C60609B
:102F4000206881546268501C6060206800F802802C
:102F5000D4E90012881842464946FDF7F6FB60683E
:102F60004044606005F00400B8B30026139808B927
:102F700038A013901298FDF70CFC86B2310A6268F3
:102F8000501C6060206881546268501C606020683A
:102F90008654D4E90012881832461299FDF7D5FB01
:102FA0006068304460601398FDF7F3FB86B2310A25
:102FB0006268501C6060206881546268501C6060C8
:102FC00020688654D4E90012881832461399FDF718
:102FD000BCFB60683044606000BF05F08000C8B191
:102FE0005046FDF7D6FB86B2310A6268501C60601D
:102FF000206881546268501C606020688654D4E95F
:103000000012881832465146FDF79FFB6068304435
:10301000606000BF05F04000C8B15846FDF7B9FB3D
:1030200086B2310A6268501C606020688154626810
:10303000501C606020688654D4E90012881832461B
:103040005946FDF782FB60683044606000BF002095
:10305000C7E60000000000002DE9FF4F83B0834663
:1030600017469946139C00250026002002900190E7
:103070008046BBF1000F03D1012007B0BDE8F08FFF
:1030800000260AE00498805D232803D00498805D20
:103090002B2801D10220F0E7761C0498805D0028DF
:1030A000F0D148F03008119808B148F0010806EB5B
:1030B0000900851C109820B1012804D002280AD1EB
:1030C00005E000BF09E048F00208AD1C05E048F04B
:1030D0000408AD1C01E00320CFE700BF8FB33878B0
:1030E000022821D14FF0000A00BF50460AF1010A20
:1030F000385C7D28F9D1AAF1030A0AF10700029091
:103100000298A9EB000AE81CA0EB0A012046FFF791
:1031100026FE206808B90420AFE7EA1CA2EB0A01EA
:103120002068FDF717FC19E0691D2046FFF717FE20
:10313000206808B90420A0E7691D2068FDF70AFC93
:103140000CE0FFE7691D2046FFF709FE206808B97B
:10315000042092E7691D2068FDF7FCFB6168481CAC
:103160006060206800F80180D4E9000281182846D8
:10317000FFF7DEFD01900198002804DA2046FFF7F2
:10318000C9FD052079E76168019808446060C6F3CD
:1031900007216268501C6060206881546268501C7E
:1031A000606020688654D4E9001288183246049979
:1031B000FDF7CBFA606830446060109860B14FEA68
:1031C0001B216268501C6060206881546268501C3A
:1031D0006060206800F802B0C7B1387802280BD1CF
:1031E000D4E9001288183946029AFDF73CFB616861
:1031F00002980844606009E0D4E9001288184A4641
:103200003946FDF730FB606848446060002034E7D1
:1032100070B505460C4604212046FFF7A0FD206846
:1032200008B9012070BD70216268501C6060206880
:10323000815402216268501C606020688154291208
:103240006268501C6060206881546268501C606035
:10325000206885540020E5E770B505460C4604213A
:103260002046FFF77CFD206808B9012070BD62216F
:103270006268501C60602068815402216268501CA2
:1032800060602068815429126268501C6060206868
:1032900081546268501C6060206885540020E5E716
:1032A0002DE9FF5F8046174699460E9C0026B246E0
:1032B000B3460025B8F1000F03D1012004B0BDE8EA
:1032C000F09F0BE057F8250008B90220F6E757F801
:1032D0002500FDF75EFA0644681CC5B24D45F1DBDA
:1032E00009EB4900801C00EB060A0AF105012046A3
:1032F000FFF735FD206808B90320DFE78221626807
:10330000501C606020688154D4E900028118504646
:10331000FFF70EFD0FFA80FBBBF1000F04DA204629
:10332000FFF7F8FC0420C9E76068584460604FEA82
:1033300018216268501C6060206881546268501CCB
:103340006060206800F80280002524E057F825001E
:10335000FDF71FFA0646C6F307216268501C60603D
:10336000206881546268501C606020688654D4E9EB
:103370000023D01857F825103246FDF7E6F96068AB
:10338000304460600198C1B26268501C606020687F
:103390008154681CC5B24D45D8DB00208EE7F0B5DE
:1033A00004460D462646012300201060002114E04B
:1033B000775C07F07F07106807FB03001060705C04
:1033C00000F0800008B9481CF0BDDB01B3F5001F18
:1033D00002D36FF00100F7E7491CA942E8DB4FF088
:1033E000FF30F1E72DE9F84380460C4615461E46AE
:1033F0002F2108F10600FDF79EF9074600200090F6
:1034000017B90120BDE8F8837F1C6A46042108F142
:103410000100FFF7C4FF2520FCF752FF2060206861
:1034200008B90220EEE725212068FDF793FA24224F
:1034300039462068FDF717FA243700982C38308079
:103440003188481CFCF73CFF2860286820B92068B8
:10345000FCF765FF0320D5E73288511C2868FDF78B
:1034600079FA328839462868FDF7FDF90020C9E766
:1034700001464878022801D001207047887810B1B1
:103480008878012801D1C878F7E7FF20F5E7000028
:103490002DE9FC5F81460D4614461E46DDE90C8B86
:1034A00099F8000000F00F0A002001900AF00800CF
:1034B0000090CAF341008BF8000001AA042109F131
:1034C0000100FFF76CFF4844471C0198022802D313
:1034D0000AF0010010B1FF20BDE8FC9F7878397830
:1034E00040EA012020802088801C0199884201D96F
:1034F000FF20F1E754A1B81CFDF739F908B10F20FE
:10350000EAE79BF8000020B101283DD0022877D1DE
:103510003BE0009808B1FF20DEE72188481CFCF75B
:10352000CFFE2860286808B9FF20D5E72288511C03
:103530002868FDF70FFA2288B91C2868FDF793F96F
:103540000198801E2188401AA8F80000B8F80010E1
:10355000481CFCF7B5FE3060306820B92868FCF7DD
:10356000DEFEFF20B8E7B8F80020511C3068FDF7F8
:10357000F1F9B8F80020B4F800C0BB1C0CEB030153
:103580003068FDF770F94FE000BF2088801C01997A
:10359000884201D9FF209FE72088C01C395C208821
:1035A000801C385C41EA00210E9801800E9808B911
:1035B000FF2091E72188481CFCF782FE28602868DC
:1035C00008B9FF2088E72288511C2868FDF7C2F956
:1035D0002288B91C2868FDF746F90198001F218848
:1035E000401AA8F80000B8F80010481CFCF768FE64
:1035F0003060306828B92868FCF791FEFF206BE73F
:1036000010E0B8F80020511C3068FDF7A3F9B8F8B5
:103610000020B4F800C03B1D0CEB03013068FDF73F
:1036200022F901E0FF2057E700BF2B212846FDF7D4
:1036300082F820B923212846FDF77DF808B1FF2044
:103640004AE7002048E7000024637265710000002B
:1036500001464878022801D001207047887820B9B7
:10366000C8780A2801D10020F7E70120F5E70146D4
:103670004878022801D001207047887820B9C8789E
:103680000A2801D10020F7E70120F5E70146487834
:10369000022801D001207047887820B9C8780A280C
:1036A00001D10020F7E70120F5E702465078022813
:1036B00001D0012070479078B0EB112F05D1D07860
:1036C000CBB2984201D10020F4E70120F2E70000DC
:1036D000F8B50446FF2720780511012D01DB0E2DDA
:1036E00001DD3846F8BD032D24D1002000906A4644
:1036F0000421601CFFF753FE2044461C009802285A
:1037000003D3207800F0010008B1FF20EAE77078C9
:10371000317840EA0120801C0099884201D9FF20BD
:10372000E0E706A1B01CFDF722F808B10F2700E082
:10373000032700E02F463846D4E700002463726573
:10374000710000000146FF208A78A2B9CA78142AC5
:1037500011D10A7932B1012A05D0022A04D0802A77
:1037600006D103E000BF00BF002003E0012001E01C
:10377000022000BF00BF7047014601208A781AB9B5
:10378000CA781E2A00D10020704700BFFEE77047AC
:1037900070B5002100230F22C47804B3154C2468AF
:1037A00004F4E064C4F5E064210AC1F10403CA40F2
:1037B000447804FA03F184781440214309010E4C43
:1037C0000678A155047804F01F050124AC40057863
:1037D0006D11AD0005F1E025C5F8004109E0047860
:1037E00004F01F050124AC40044D0678761145F81D
:1037F000264070BD0CED00E000E400E080E100E058
:1038000002490143024A1160704700000000FA05B6
:103810000CED00E010B500F087F800F063F800F060
:1038200091F810BD2DE9F04705460C4616464FF0BD
:10383000000AA01CC4B2D1463AE005F1B000C2B201
:1038400000217820FFF7CAF92746E01704EB107033
:1038500000111030C2B200217820FFF7BFF9E01745
:1038600004EB10700011A4EB0010C2B2002178200C
:10387000FFF7B4F94FF0000811E00AEB0610A0F5CD
:1038800000700E490A5C40217820FFF7A7F90AF181
:10389000010000F0FF0A08F1010000F0FF08B8F194
:1038A000080FEADB681CC5B209F1010000F0FF094E
:1038B000B9F1020FC1DBBDE8F0870000C76F000857
:1038C00070B506460C46002508E014F8012BE80602
:1038D000010E3046FFF7A6FF681CC5B2207800280D
:1038E000F3D170BD70B5B0241BE0224600217820D2
:1038F000FFF774F9102200217820FFF76FF90022FA
:1039000011467820FFF76AF9002506E000224021E1
:103910007820FFF763F9681CC5B2842DF6DB601CC4
:10392000C4B2B82CE1DB70BD08B505A000680090FA
:1039300003236A4600217820FFF708F908BD00003C
:10394000AE8D100000B587B01C2206A16846FCF7BA
:10395000CFFF1C236A4600217820FFF7F7F807B055
:1039600000BD0000AE0010D580A83FD300B0408D50
:1039700014A1C8DA1281FFD9F1DB302000A4A6AF70
:1039800030B58BB000200790089009900A9001256F
:1039900030A032A333A235A10090404800F072FF5E
:1039A00007A8002102910391CDE9041000912B0298
:1039B00028A2019129A12BA0FFF7FEF9002842D1EE
:1039C000089A91B20798FEF71BFEFA20FEF7BAFCA0
:1039D0000446002C33D02046FFF77AFE02282ED171
:1039E0002046FFF745FD062823D2DFE800F0030953
:1039F0000E13181D2AA1294800F044FF00251DE0E0
:103A00002CA1264800F03EFF18E031A1234800F029
:103A100039FF13E037A1214800F034FF0EE03DA14B
:103A20001E4800F02FFF09E043A11C4800F02AFFC8
:103A300004E04CA1194800F025FF00BF00BF07A813
:103A4000FFF768F903E04EA1144800F01BFF284679
:103A50000BB030BD35363136383339007465737488
:103A60000000000037373234370000004F6E654EDB
:103A700065745F4465764C696E6B0D0A50524F4910
:103A8000443A2025732C09415549463A2025732C88
:103A90000944455649443A25730D0A00003801404F
:103AA000546970733A09C1ACBDD3B3C9B9A60D0A44
:103AB000000000005741524E3A09C1ACBDD3CAA71D
:103AC000B0DCA3BAD0ADD2E9B4EDCEF30D0A00005C
:103AD0005741524E3A09C1ACBDD3CAA7B0DCA3BA14
:103AE000B7C7B7A8B5C4636C69656E7469640D0A1D
:103AF000000000005741524E3A09C1ACBDD3CAA7DD
:103B0000B0DCA3BAB7FECEF1C6F7CAA7B0DC0D0A87
:103B1000000000005741524E3A09C1ACBDD3CAA7BC
:103B2000B0DCA3BAD3C3BBA7C3FBBBF2C3DCC2EBFD
:103B3000B4EDCEF30D0A00005741524E3A09C1AC24
:103B4000BDD3CAA7B0DCA3BAB7C7B7A8C1B4BDD3A9
:103B500028B1C8C8E7746F6B656EB7C7B7A8290DE1
:103B60000A0000004552523A09C1ACBDD3CAA7B001
:103B7000DCA3BACEB4D6AAB4EDCEF30D0A00000091
:103B80005741524E3A094D5154545F5061636B6531
:103B900074436F6E6E656374204661696C65640D75
:103BA0000A00000070B588B005460C46002004905D
:103BB00005900690079023462A4610A1174800F06A
:103BC00061FE2046FCF7E5FD064604A8012100221F
:103BD00000923346CDE901210390224629460A206E
:103BE000FFF73AFA38B9059A91B20498FEF708FD42
:103BF00004A8FFF78FF808B070BD00005075626C24
:103C000069736820546F7069633A2025732C204DC6
:103C100073673A2025730D0A000000000038014048
:103C20002DE9F04F8FB0814600200B900C900D9045
:103C30000E900A90099008900790002706900026A1
:103C4000002482464846FFF743FD0746F81E0D282C
:103C500076D2DFE800F01C7F88A2BEE3C7E3D5E39D
:103C6000E3E3070007AB0AAA09A94846FFF7BAFB36
:103C700006465EB9BDF81C00009081A18948DDE9C7
:103C8000092300F0FFFD0BA8FFF744F8C9E08648C0
:103C900006A907AA0AABCDE90021029008AA09A942
:103CA0004846FFF7F5FB0646002E52D1BDF81C0032
:103CB0000A99CDE90010BDF820307CA17948099A15
:103CC00000F0E0FD0A9800F0FDFE804686A17548F0
:103CD0000A9A00F0D7FDB8F1000F08D100F0CCFE31
:103CE00083465A4682A16F4800F0CCFD2EE085A1A4
:103CF000404600F0C7FE054684A12869FCF737FD61
:103D000070B183A1404600F0BDFE0546686918B158
:103D100000208149086019E001207F49086015E012
:103D20007EA12869FCF723FD80B179A1404600F00F
:103D3000A9FE0546686920B101207A49087005E0AE
:103D40006CE000207749087077490870404600F021
:103D500067FE66E04846FFF77BFC18B973A151483F
:103D600000F090FD5DE04846FFF790FCA0B977A118
:103D70004C4800F087FD0BA90A20FFF76DFA58B9EF
:103D800078A1484800F07EFD0C9A91B20B98FEF79E
:103D900037FC0BA8FEF7BEFF43E0434801884846C6
:103DA000FFF783FCA0B975A13E4800F06BFD0BA99D
:103DB0000A20FFF72DFA58B976A13A4800F062FDC3
:103DC0000C9A91B20B98FEF71BFC0BA8FEF7A2FF12
:103DD00027E04846FFF74BFC18B975A1314800F0C1
:103DE00051FD1EE04846FFF7ADFC20B976A12D48F5
:103DF00000F048FD03E07BA12A4800F043FD10E0FD
:103E00004846FFF7B9FC20B97DA1264800F03AFDED
:103E100003E082A1234800F035FD02E04FF0FF36B9
:103E200000BF00BFFEF780FA701C10B90FB0BDE8EC
:103E3000F08F7D210A98FCF77EFC0446A4B1701C2B
:103E400090B1641C06E014F8012B50460AF1010AF7
:103E500003A90A542078302802DB20783928F2DDC3
:103E600003A8FCF75BFC82460F2F01D0032F05D17E
:103E70000998FCF754FA0A98FCF751FA00BFD5E705
:103E8000636D6469643A2025732C207265713A2051
:103E900025732C207265715F6C656E3A2025640D68
:103EA0000A0000000038014044000020746F70696F
:103EB000633A2025732C20746F7069635F6C656EA4
:103EC0003A2025642C207061796C6F61643A20255A
:103ED000732C207061796C6F61645F6C656E3A2041
:103EE00025640D0A0000000025730D0A0000000083
:103EF0004552524F52206265666F72653A205B25CB
:103F0000735D0A0074617267657400004C4544007B
:103F100076616C7565000000840121424245455080
:103F200000000000060000200700002054697073A4
:103F30003A094D515454205075626C69736820538E
:103F4000656E64204F4B0D0A0000000054697073C9
:103F50003A09526576205075626C697368526563E0
:103F60000D0A0000546970733A0953656E6420505D
:103F700075626C69736852656C0D0A0054697073E0
:103F80003A09526576205075626C69736852656CA7
:103F90000D0A0000546970733A0953656E6420502D
:103FA00075626C697368436F6D700D0A00000000E4
:103FB000546970733A09526576205075626C697362
:103FC00068436F6D700D0A00546970733A094D5162
:103FD000545420537562736372696265204F4B0DB0
:103FE0000A000000546970733A094D51545420532B
:103FF0007562736372696265204572720D0A000012
:10400000546970733A094D51545420556E5375627A
:10401000736372696265204F4B0D0A0054697073B7
:104020003A094D51545420556E5375627363726949
:104030006265204572720D0A0000000070B586B0FE
:1040400004460D460026002002900390049005903F
:1040500007E054F826200DA1124800F013FC701C54
:10406000C6B2AE42F5DB02A82B46224600210090E4
:104070001420FFF715F938B9039A91B20298FEF7A8
:10408000BFFA02A8FEF746FE06B070BD5375627314
:10409000637269626520546F7069633A2025730DFD
:1040A0000A000000003801407047000029B1064AAC
:1040B000D2690243044BDA6104E0034AD2698243C5
:1040C000014BDA61704700000010024029B1064A36
:1040D00092690243044B9A6104E0034A9269824365
:1040E000014B9A61704700000010024030B500217A
:1040F0000022002400232D4D6D6805F00C0121B134
:10410000042905D0082923D105E0294D056022E0C6
:10411000274D05601FE0254D6D6805F47012234D95
:104120006D6805F48034022505EB92421CB9214DDF
:10413000554305600BE01D4D6D6805F400351DB15C
:104140001C4D5543056002E0194D5543056002E0E2
:10415000174D056000BF00BF144D6D6805F0F001FC
:104160000909154D6B5C0568DD4045600F4D6D68B4
:1041700005F4E061090A104D6B5C4568DD4085601F
:104180000A4D6D6805F46051C90A0B4D6B5C4568BA
:10419000DD40C560054D6D6805F44041890B074D54
:1041A0006B5CC568B5FBF3F5056130BD00100240DE
:1041B00000127A0000093D002C0000203C00002085
:1041C000704710B500F002F810BD00000CB50020DB
:1041D000019000903348006840F480303149086015
:1041E00000BF3048006800F4003000900198401C87
:1041F0000190009818B90198B0F5A06FF1D1294845
:10420000006800F4003010B10120009001E00020AF
:1042100000900098012843D12348006840F0100026
:10422000214908600846006820F00300086008463D
:10423000006840F0020008601A4840681949486068
:104240000846406848600846406840F4806048601E
:104250000846406820F47C1048600846406840F4F6
:10426000E81048600846006840F08070086000BFB1
:104270000C48006800F000700028F9D00948406838
:1042800020F00300074948600846406840F00200FB
:10429000486000BF0348406800F00C000828F9D1CE
:1042A0000CBD0000001002400020024010B5044682
:1042B000FDF7F8FE4620FDF7C7FE2046FDF7C4FED9
:1042C000FDF70EFF10BD042808D14FF0E021096969
:1042D00041F004014FF0E022116107E04FF0E021CE
:1042E000096921F004014FF0E02211617047704725
:1042F00010B51348006840F00100114908600846F5
:104300004068104908400E494860084600680E4958
:1043100008400B4908600846006820F480200860C7
:104320000846406820F4FE0048604FF41F00886093
:10433000FFF747FF4FF000600449086010BD000020
:10434000001002400000FFF8FFFFF6FE08ED00E05D
:1043500010B501210E4800F062F8C0B101210C48EF
:1043600000F04EF80B48007888B10B48006808B997
:10437000012000E00020084908600848D0F89001BA
:1043800008B9012000E0002003491031086010BD89
:10439000000400400600002080012142000021426C
:1043A0007FB505460C4601210220FFF77FFEADF8E0
:1043B0000850ADF804400020ADF80A00ADF8060042
:1043C00001A90E4800F046F8012211460B4800F002
:1043D00037F81D208DF8000000208DF80100032023
:1043E0008DF8020001208DF803006846FFF7D0F930
:1043F0000121024800F007F87FBD000000040040E2
:10440000CA430282704721B1028842F00102028051
:1044100004E002884FF6FE731A400280704730B500
:104420000246002000230024158A05EA010395892D
:1044300005EA010413B10CB1012000E0002030BDF9
:104440001AB183890B43838102E083898B43838183
:1044500070470000002202881D4B98420ED01D4B71
:1044600098420BD0B0F1804F08D01B4B984205D03A
:104470001A4B984202D01A4B984204D14FF68F73D0
:104480001A404B881A43174B984207D0164B984254
:1044900004D04FF6FF431A40CB881A4302808B8822
:1044A00083850B8803850A4B98420BD0094B9842B1
:1044B00008D00E4B984205D00D4B984202D00D4BC0
:1044C000984201D10B7A0386012383827047000052
:1044D000002C01400034014000040040000800406E
:1044E000000C00400010004000140040004001405B
:1044F000004401400048014010B540F225510448F5
:1045000000F050F818B12021014800F029F810BD42
:104510000038014010B540F225510E4800F042F835
:10452000B0B10D480088802802D300200A490880D5
:104530000848001D0088C1B2074802880088401C56
:10454000054B1880054881542021024800F008F8E6
:1045500010BD000000440040400000205401002035
:1045600001F40072B2F5007F00D100BFCA4302809F
:10457000704721B1828942F40052828104E082892D
:104580004DF6FF731A408281704702460020B1F554
:10459000007F00D100BF13880B400BB1012000E069
:1045A0000020704770B5024600240023002500203B
:1045B00040F66A16B14200D100BFC1F3421501F0C6
:1045C0001F03012606FA03F3012D02D19689334019
:1045D00006E0022D02D1168A334001E0968A33406C
:1045E0000C12012606FA04F41688344013B10CB1FB
:1045F000012000E0002070BDF0B503460024002635
:104600000025002040F66A17B94200D100BF1846C5
:10461000C1F3421401F01F06012707FA06F5012C29
:1046200001D10C3004E0022C01D1103000E0143034
:104630001AB107682F43076002E00768AF430760BD
:10464000F0BD00002DE9F04786B005460E46002477
:10465000A24600BFA1460027B08900B100BF2F4687
:104660002C8A4CF6FF700440F08804432C82AC89FD
:104670004EF6F3100440B08831890843718908432D
:104680000443AC81AC8A4FF6FF400440B089044338
:10469000AC8201A8FFF72AFD1F48874202D1DDF84E
:1046A00010A001E0DDF80CA0A88900F4004040B1A2
:1046B0000AEBCA0000EB0A1031684900B0FBF1F8C0
:1046C00007E00AEBCA0000EB0A1031688900B0FB72
:1046D000F1F86420B8FBF0F004012009642101FB2B
:1046E0001089A88900F4004040B1322000EBC900D5
:1046F000B0FBF1F000F00700044308E0322000EBCB
:1047000009106421B0FBF1F000F00F0004432C818C
:1047100006B0BDE8F087000000380140C1F3080290
:104720008280704700BFFEE710B586B004460121C5
:104730000420FFF7CBFC01218803FFF7C7FC1820FA
:104740008DF817004FF40070ADF8140003208DF8B9
:10475000160005A91E48FEF76DF804208DF8170015
:104760000002ADF8140003208DF8160005A91848C2
:10477000FEF760F801940020ADF810000C20ADF8B1
:104780000E000020ADF80C00ADF80A00ADF80800EE
:1047900001A91048FFF756FF01210E48FFF7E9FE77
:1047A000012240F225510B48FFF726FF25208DF806
:1047B000000001208DF8030000208DF80100022088
:1047C0008DF802006846FEF7E3FF06B010BD00005A
:1047D000000801400038014010B586B004460121B0
:1047E0000420FFF773FC01214804FFF75FFC182049
:1047F0008DF817000420ADF8140003208DF8160082
:1048000005A91E48FEF716F804208DF817000820A9
:10481000ADF8140003208DF8160005A91748FEF71F
:1048200009F801940020ADF810000C20ADF80E003E
:104830000020ADF80C00ADF80A00ADF8080001A9A1
:104840000F48FFF7FFFE01210D48FFF792FE0122FE
:1048500040F225510A48FFF7CFFE26208DF80000D0
:1048600001208DF8030000208DF801008DF8020072
:104870006846FEF78DFF06B010BD0000000801403D
:10488000004400400FB430B5CBB0054601AC50A891
:1048900000904FF4947101A8009B4F9AFBF774FDB0
:1048A000002000900BE014F8011B2846FFF736FFAC
:1048B00000BF40212846FFF768FE0028F9D0207885
:1048C0000028F0D14BB030BC5DF814FB2DE9F0416D
:1048D00007460C46154600260DE014F8011B384625
:1048E000FFF71CFF00BF40213846FFF74EFE0028AF
:1048F000F9D0701C86B2AE42EFDBBDE8F081490012
:1049000050EAC12018BF04204A0D18BF40F0010032
:1049100040F2FF72B2EB515F08BF40F00200012885
:1049200008BF052070472DE9F0414F1E00EBC7017D
:104930000446D1E9000115461E4637F006020DD0A7
:104940002A46334601F02AFF7F1E04EBC703D3E952
:10495000002301F08DFC37F00602F1D1022F25D0A3
:10496000042F13D0062F18BFBDE8F0812A46334626
:1049700001F014FFD4E90A2301F07AFC2A463346F9
:1049800001F00CFFD4E9082301F072FC2A463346FB
:1049900001F004FFD4E9062301F06AFC2A463346FD
:1049A00001F0FCFED4E9042301F062FC2A46334600
:1049B00001F0F4FED4E9022301F05AFC2A46334602
:1049C00001F0ECFED4E90023BDE8F04101F050BC59
:1049D000002213461046014901F006BD0000F03FD9
:1049E00001F046BC002213461046114601F0FCBC03
:1049F00040F2013200204FF0E04102F099BA00008D
:104A0000024A0020110702F093BA000001FDFFFFE7
:104A100030380A2801D2012070470020704700007A
:104A200070B5044622E02568A08900F4807020B9A2
:104A3000A06810B1A068FFF7F3FFA08900F48070B0
:104A400028B9206918B10B49206909688847A089ED
:104A500000F4007028B9206A18B10649206A096874
:104A6000884720460349096888472C46002CDAD13C
:104A700070BD000050000020014800687047000031
:104A80004800002070B505460E46AC6800E024687A
:104A90002CB13146206A00F04FF80028F7D12046AB
:104AA00070BD000010B528200549096888470446F4
:104AB0001CB128212046FBF76FFF204610BD0000E7
:104AC0004C00002010B5044600221146204600F09C
:104AD00001F810BD2DE9F04780460D46164600242A
:104AE000FFF7E0FF07460020124908600FB9BDE854
:104AF000F087404601F02EFB81464946384600F0DB
:104B000099FD044624B93846FFF78AFF0020EEE7F6
:104B100066B1204601F01EFB0446207830B13846CD
:104B2000FFF77EFF034804600020E0E705B12C603A
:104B30003846DCE74800002070B504460D462CB925
:104B4000AC4201D0012070BD0020FCE70DB901206E
:104B5000F9E705E0207808B90020F4E7641C6D1C33
:104B60002078FBF703FC06462878FBF7FFFB86421C
:104B7000F0D02078FBF7FAFB06462878FBF7F6FB27
:104B8000301AE0E710B56FF00400FFF79CFB0A480D
:104B900000680A49B0FBF1F009490870084600783E
:104BA00000EB4001C1EBC0104FF6FF7101EAC000FD
:104BB0000449088010BD00000800002000127A009F
:104BC000280000202A0000200146114A12884A438A
:104BD0004FF0E0235A6100229A611A46126942F0AE
:104BE00001021A6100BF4FF0E022106900F00102DB
:104BF0001AB100F48032002AF5D04FF0E022126999
:104C000022F001024FF0E0231A6100229A617047FE
:104C10002A0000200146114A12784A434FF0E0234F
:104C20005A6100229A611A46126942F001021A6121
:104C300000BF4FF0E022106900F001021AB100F449
:104C40008032002AF5D04FF0E022126922F00102F2
:104C50004FF0E0231A6100229A617047280000207B
:104C60001FB5002400270025FFF78CFF4FF4A0603C
:104C7000FEF7C6FD40F6B830FFF7A6FFFDF75CFA79
:104C8000FEF724F84FF4E130FFF74EFD4FF4E1302A
:104C9000FFF7A2FD41F61F4141F28730FFF780FB8D
:104CA000FDF788FEFEF7B6FD77A10020FEF708FEAF
:104CB000FDF780FA40B979A10420FEF701FE7CA13E
:104CC0000620FEF7FDFD03E07EA10420FEF7F8FDBF
:104CD0004FF47A70FFF778FFFDF75CFBFDF7FCFC03
:104CE000FDF7C6FF03E04FF4FA70FFF76DFFFEF724
:104CF00047FE0028F7D101217748FFF79FF977A1F8
:104D00007B48FFF7BFFDFDF705FABBE0701CC0B2A2
:104D1000064628287EDD01F0D7F9804602F06AF8C1
:104D200084B203A8FDF766FAC0BB9DF80C000A2107
:104D300090FBF1F030301FFA80F842464821042001
:104D4000FEF770FD9DF80C000A2190FBF1F201FBCB
:104D5000120030301FFA80F8424650210420FEF73E
:104D600061FD9DF80D000A2190FBF1F030301FFA33
:104D700080F8424660210620FEF754FD9DF80D00A4
:104D80000A2190FBF1F201FB120030301FFA80F88B
:104D9000424668210620FEF745FD04E0FFE755A1E5
:104DA0000620FEF78DFD00949DF80D309DF80C2037
:104DB00055A14F48FFF766FD00265C4800780A2899
:104DC00018D19DF80C00322807DC9DF80D0023282F
:104DD00003DC41F27070844203DD01205449087005
:104DE00008E00020524908700120524908605249E9
:104DF000C1F890014D4800780A280FDA4B48007836
:104E0000401C4A490870002049490870012049495E
:104E1000086000E002E04849C1F89001781C80B2C7
:104E20000746282823DB02214448FDF78EFD44492C
:104E3000087044A12E48FFF725FD3D480078404901
:104E4000097809B9012100E00021CDE90041029073
:104E50009DF80D309DF80C203FA14C48FBF7AEFAB1
:104E60004A494B48FEF79EFE0027FDF75DFA0320F6
:104E7000FDF768FA054615B12846FEF7D1FE0A206F
:104E8000FFF7A2FE42E700002020204448543131C1
:104E900020544553542020200000000048756D69BF
:104EA000646974793A202020252020200000000029
:104EB00054656D70657261747572653A2020204387
:104EC000000000004448543131494E4954204552B5
:104ED000524F522100000000000000202048617263
:104EE000647761726520696E6974206F6B0D0A00CA
:104EF0000038014044485431315245414420455224
:104F0000524F522100000000CAAAB6C83A256420B8
:104F100025252CCEC2B6C83A256420432CB9E2D54B
:104F2000D5B6C83A25640D0A00000000070000202D
:104F300006000020800121420000214200080140BB
:104F4000040000204F6E654E65745F5075626C6999
:104F500073680D0A000000007B2248756D70223ACC
:104F600025642C2254656D70223A25642C224C69EC
:104F7000676874223A25642C224C6564223A2564C1
:104F80002C2242656570223A25647D005400002081
:104F9000BC6F000810B5FDF785F84720FDF754F801
:104FA00000240EE0FCF7DCFF0A490855032C03D16E
:104FB0000120FDF717F802E00020FDF713F8601C50
:104FC000C4B2032CEEDBFDF78BF80520FFF7FCFDE8
:104FD00010BD00001C0000202DE9F04705460C46DE
:104FE00020785B2804D0264804600020BDE8F087C4
:104FF0000520E860601C01F0ADF8044620785D28CB
:1050000001D1601CF2E7FFF74DFD0646A860A868D5
:1050100008B90020EAE7204601F09CF880464146A6
:10502000304600F007FB074601F094F804460CB93F
:105030000020DBE717E0FFF735FD071E00D1D5E7BD
:1050400037607E603E46601C01F084F88146494628
:10505000304600F0EFFA804601F07CF804460CB9C7
:105060000020C3E700BF20782C28E4D020785D28FA
:1050700001D1601CBAE7024804600020B6E70000D6
:1050800048000020014600220878302806DB087816
:10509000392803DC08783038024415E008784128C4
:1050A00006DB0878462803DC0878373802440BE032
:1050B0000878612806DB0878662803DC087857380A
:1050C000024401E0002070471201491C0878302892
:1050D00006DB0878392803DC08783038024415E00C
:1050E0000878412806DB0878462803DC087837383A
:1050F00002440BE00878612806DB0878662803DCA8
:1051000008785738024401E00020DCE71201491C0E
:105110000878302806DB0878392803DC087830382E
:10512000024415E00878412806DB0878462803DCAD
:105130000878373802440BE00878612806DB0878E5
:10514000662803DC08785738024401E00020BAE7FB
:105150001201491C0878302806DB0878392803DC5E
:1051600008783038024415E00878412806DB0878D2
:10517000462803DC0878373802440BE008786128B9
:1051800006DB0878662803DC08785738024401E01B
:10519000002098E7104696E72DE9F04F8BB0834644
:1051A0008A460020044605460026674F00218846AF
:1051B00089460990012008909AF800002D2802D114
:1051C000624F0AF1010A9AF80000302801D10AF171
:1051D000010A9AF80000312822DB9AF800003928E9
:1051E0001EDC00BF1AF8011BA1F1300001F083FAA8
:1051F0000022574BCDE906012046294601F0CEFAA0
:10520000CDE90401DDE9062301F032F804460D463C
:105210009AF80000302803DB9AF800003928E1DD15
:105220009AF800002E2830D19AF8010030282CDBA3
:105230009AF80100392828DC0AF1010A00BF1AF89F
:10524000011BA1F1300001F056FA0022404BCDE9DC
:1052500006012046294601F0A1FACDE90401DDE965
:10526000062301F005F804460D460022364B404661
:10527000494601F0B9FC804689469AF8000030287A
:1052800003DB9AF800003928D9DD9AF80000652878
:1052900003D09AF80000452823D10AF1010A9AF8B0
:1052A00000002B2802D10AF1010A08E09AF8000058
:1052B0002D2804D14FF0FF3008900AF1010A08E0D0
:1052C0001AF8010B3038099901EB810100EB41001C
:1052D00009909AF80000302803DB9AF8000039287A
:1052E000EEDDDDE9082101FB02F001F004FA42469F
:1052F0004B46CDE9000100F0BBFF02460B46CDE96D
:1053000002010020124900F0F3F922462B46CDE9B4
:1053100006013046394601F041FACDE90401DDE9E4
:10532000062301F03BFA04460D46CBE9064520462C
:10533000294601F0B1F9CBF814000320CBF80C009A
:1053400050460BB0BDE8F08F0000F03F0000F0BF0A
:10535000000024402DE9F04706460C4620787B28C3
:1053600004D0404804600020BDE8F0870620F060CB
:10537000601C00F0EFFE044620787D2801D1601CFF
:10538000F2E7FFF78FFB0546B060B06808B9002070
:10539000EAE7204600F0DEFE80464146284600F05F
:1053A00063F8074600F0D6FE04460CB90020DBE7A0
:1053B000286928620020286120783A2803D02948EB
:1053C00004600020D0E7601C00F0C4FE8046414627
:1053D000284600F02FF9074600F0BCFE04460CB941
:1053E0000020C1E731E0FFF75DFB071E00D1BBE7FE
:1053F0002F607D603D46601C00F0ACFE8146494652
:10540000284600F031F8804600F0A4FE04460CB9AE
:105410000020A9E7286928620020286120783A281E
:1054200003D01048046000209EE7601C00F092FE4C
:1054300081464946284600F0FDF8804600F08AFE85
:1054400004460CB900208FE700BF20782C28CAD072
:1054500020787D2801D1601C86E702480460002086
:1054600082E70000480000202DE9F05F834688466F
:1054700008F10104002798F80000222805D06A48A6
:10548000C0F800800020BDE8F09F04E014F8011B84
:105490005C2900D1641C2078222804D0207810B127
:1054A000781C071EF2D1781C60490968884781463C
:1054B000B9F1000F01D10020E5E708F101044D46E4
:1054C0009EE020785C2804D014F8010B05F8010B4D
:1054D00096E0641C2078722818D006DC622809D077
:1054E00066280BD06E287DD10CE0742812D0752868
:1054F000F9D113E0082005F8010B7FE00C2005F836
:10550000010B7BE00A2005F8010B77E00D2005F880
:10551000010B73E0092005F8010B6FE0601CFFF739
:10552000B1FD0646241DB6F55C4F02D3B6F5604FBB
:1055300000D306B962E0B6F5584F1CD3B6F55C4F00
:1055400019D260785C2802D1A078752800D055E087
:10555000E01CFFF797FD8246A41DBAF55C4F02D30D
:10556000BAF5604F00D349E0C6F30901504661F334
:105570009F2000F580360427802E01D2012708E005
:10558000B6F5006F01D2022703E0B6F5803F00D2E6
:1055900003273D44012F20D0022F15D0032F0AD01E
:1055A000042F24D106F0BF0040F08001681E05469C
:1055B0000170B60900BF06F0BF0040F08001681E10
:1055C00005460170B60900BF06F0BF0040F080013B
:1055D000681E05460170B60900BF1548C05D30431E
:1055E000C1B200E006E0681E0546017000BF00BFC2
:1055F0003D4403E0207805F8010B00BF00BF641CA8
:105600002078222803D0207800287FF45AAF002089
:1056100028702078222800D1641CCBF81090042038
:10562000CBF80C0020462EE7480000204C0000205C
:10563000C775000870B505460C460CB9002070BD52
:10564000042224A12046FBF7C3F818B90220E86021
:10565000201DF4E7052221A12046FBF7B9F818B96F
:105660000020E860601DEAE704221EA12046FBF747
:10567000AFF820B90120E8606861201DDFE72078DD
:10568000222804D121462846FFF7EEFED7E72078EE
:105690002D2805D02078302807DB2078392804DC35
:1056A00021462846FFF778FDC9E720785B2804D11A
:1056B00021462846FFF790FCC1E720787B2804D1DB
:1056C00021462846FFF746FEB9E708480460002057
:1056D000B5E700006E756C6C0000000066616C73CD
:1056E000650000007472756500000000480000202D
:1056F0002DE9F04D1D460C4698B0174621F00041AB
:1057000023F00043002814BF4FF0010C4FF0000CB1
:105710000CEB440CFE4A0CEB02064FEA620C6645A9
:105720002BD33E0018BF012606EB45061644F94A66
:10573000964222D3F84A53EA070C02D0944205D18C
:1057400048B918B000201146BDE8F08D002808BF08
:105750004FF0000C01D04FF0010C0CEB440212F59D
:10576000001F0AD8002F14BF4FF0010C4FF0000C9F
:105770000CEB450212F5001F07D918B03A462B462C
:105780002146BDE8F04DFFF72BB90022DFF88CA3CE
:10579000002CB8BF534526DADFF884C36345A8BFA1
:1057A000022220DADFF870C39C451CDCDFF874C3EA
:1057B0000CEB235CBCF1140F08DDCCF1340627FAA6
:1057C00006FC0CFA06F6BE420DD108E05FB9CCF13A
:1057D000140623FA06FC0CFA06F69E4203D10CF0DE
:1057E0000102C2F1020251EA000C19D1002D17DAB0
:1057F000002C18BF022A01D0012A07D00220FBF793
:1058000058F918B0BDE8F04DFFF7E2B80220FBF7F9
:1058100050F9FFF7DDF818B081F00041BDE8F08DD8
:10582000B7F1000C6CD1534525D104F1804212F53B
:10583000801201BF00280020B74918B008BFBDE89A
:10584000F08DB548884207DC002DA1BF604629468F
:1058500018B0BDE8F08D07E0281E05DA80F00041A1
:1058600018B06046BDE8F08DAF497944D1E9000138
:1058700018B0BDE8F08DDFF8A0C2634525D1002D3A
:105880001FDA19B1514512D1D8B909E0002840F00A
:10589000EC82A24A214618B062F31E01BDE8F08DE9
:1058A0000020214618B060F31E01BDE8F08D08DA33
:1058B00018B02346BDE8F04D02460020614600F0D6
:1058C00093BD18B02146BDE8F08D514518DAB5F109
:1058D000804F0DD0A5F1005CBCF1FF5C10D1B4F19C
:1058E000000C0DDB18B06146BDE8F04D00F03BBC8C
:1058F000234618B00246BDE8F04D194600F04EBFF1
:10590000060024F0004C3BD1D9B1514533D1002CD5
:1059100006DD002DA1BF0020514618B0BDE8F08D76
:10592000002C01DD002D1BDB002C13DA002D11DB18
:10593000012A4FF0000014BF78497C4918B0BDE837
:10594000F08D022A18BF002C0AD0012A08D1002CA1
:1059500006DA0AE0002CB8BF002D11DA012A04D0C3
:10596000002018B00146BDE8F08D18B000204FF0BF
:105970000041BDE8F08DA1F14050B0F17F601AD038
:10598000012000EBE47050EA020421D0624C521E68
:105990004FF0000B104304BF4FF0000B644C654800
:1059A00083427CDD644A654893421FDD884217DBF1
:1059B000002D25DB37E0002C00DA4AB1022A0CBFAB
:1059C00001204FF0FF3018B0BDE8F04D00F093BE5D
:1059D0000120FBF76EF818B0BDE8F04DFFF702B8F4
:1059E0004D4A8A4202DC002D0ADC1CE0814202DAC8
:1059F000002D18DA04E0484B994220DD002D12DD1D
:105A00000220FBF756F8FEF7F3FF05460E4600228C
:105A100053465846214600F0C1FE18B066F31E01F9
:105A20002846BDE8F08D0220FBF743F8FEF7E8FFBB
:105A30000A46214618B062F31E01BDE8F08D00222F
:105A40003046614601F0D0F880460E466FF0010204
:105A500001F06EFA4FF05532394B00F0D3FF424659
:105A6000334600F09BFE0022364B00F0CBFF82460F
:105A70004246334604911046194600F08FFE5246C6
:105A8000049B00F08BFE8A4600904FF0C0422E4BE4
:105A90004046314600F082FE2C4A2B4B00E027E0C6
:105AA000CDE906015146009800F078FE824601914A
:105AB000274A284B4046314600F070FE5246019B73
:105AC00001F092F882460B4602460591DDE9060197
:105AD00000F0CEFBDDE9062300268846304601F0C3
